{"abi":[{"type":"function","name":"getMessage","inputs":[{"name":"index","type":"uint256","internalType":"uint256"}],"outputs":[{"name":"","type":"tuple","internalType":"struct MessageBoard.StoredMessage","components":[{"name":"user","type":"address","internalType":"address"},{"name":"message","type":"string","internalType":"string"},{"name":"timestamp","type":"uint256","internalType":"uint256"}]}],"stateMutability":"view"},{"type":"function","name":"getMessageCount","inputs":[],"outputs":[{"name":"","type":"uint256","internalType":"uint256"}],"stateMutability":"view"},{"type":"function","name":"getMessages","inputs":[],"outputs":[{"name":"","type":"tuple[]","internalType":"struct MessageBoard.StoredMessage[]","components":[{"name":"user","type":"address","internalType":"address"},{"name":"message","type":"string","internalType":"string"},{"name":"timestamp","type":"uint256","internalType":"uint256"}]}],"stateMutability":"view"},{"type":"function","name":"messages","inputs":[{"name":"","type":"uint256","internalType":"uint256"}],"outputs":[{"name":"user","type":"address","internalType":"address"},{"name":"message","type":"string","internalType":"string"},{"name":"timestamp","type":"uint256","internalType":"uint256"}],"stateMutability":"view"},{"type":"function","name":"storeMessage","inputs":[{"name":"message","type":"string","internalType":"string"}],"outputs":[],"stateMutability":"nonpayable"},{"type":"event","name":"MessageStored","inputs":[{"name":"user","type":"address","indexed":true,"internalType":"address"},{"name":"message","type":"string","indexed":false,"internalType":"string"},{"name":"timestamp","type":"uint256","indexed":false,"internalType":"uint256"}],"anonymous":false}],"bytecode":{"object":"0x6080604052348015600e575f5ffd5b50610e878061001c5f395ff3fe608060405234801561000f575f5ffd5b5060043610610055575f3560e01c80630d80fefd14610059578063319339161461008b5780635ff6cbf3146100a957806386f79edb146100c7578063d4e36ba7146100f7575b5f5ffd5b610073600480360381019061006e9190610674565b610113565b6040516100829392919061075d565b60405180910390f35b6100936101ec565b6040516100a09190610799565b60405180910390f35b6100b16101f7565b6040516100be9190610920565b60405180910390f35b6100e160048036038101906100dc9190610674565b610340565b6040516100ee919061098d565b60405180910390f35b610111600480360381019061010c9190610a0e565b6104ad565b005b5f8181548110610121575f80fd5b905f5260205f2090600302015f91509050805f015f9054906101000a900473ffffffffffffffffffffffffffffffffffffffff169080600101805461016590610a86565b80601f016020809104026020016040519081016040528092919081815260200182805461019190610a86565b80156101dc5780601f106101b3576101008083540402835291602001916101dc565b820191905f5260205f20905b8154815290600101906020018083116101bf57829003601f168201915b5050505050908060020154905083565b5f5f80549050905090565b60605f805480602002602001604051908101604052809291908181526020015f905b82821015610337578382905f5260205f2090600302016040518060600160405290815f82015f9054906101000a900473ffffffffffffffffffffffffffffffffffffffff1673ffffffffffffffffffffffffffffffffffffffff1673ffffffffffffffffffffffffffffffffffffffff16815260200160018201805461029e90610a86565b80601f01602080910402602001604051908101604052809291908181526020018280546102ca90610a86565b80156103155780601f106102ec57610100808354040283529160200191610315565b820191905f5260205f20905b8154815290600101906020018083116102f857829003601f168201915b5050505050815260200160028201548152505081526020019060010190610219565b50505050905090565b610348610604565b5f80549050821061038e576040517f08c379a000000000000000000000000000000000000000000000000000000000815260040161038590610b00565b60405180910390fd5b5f82815481106103a1576103a0610b1e565b5b905f5260205f2090600302016040518060600160405290815f82015f9054906101000a900473ffffffffffffffffffffffffffffffffffffffff1673ffffffffffffffffffffffffffffffffffffffff1673ffffffffffffffffffffffffffffffffffffffff16815260200160018201805461041c90610a86565b80601f016020809104026020016040519081016040528092919081815260200182805461044890610a86565b80156104935780601f1061046a57610100808354040283529160200191610493565b820191905f5260205f20905b81548152906001019060200180831161047657829003601f168201915b505050505081526020016002820154815250509050919050565b5f60405180606001604052803373ffffffffffffffffffffffffffffffffffffffff16815260200184848080601f0160208091040260200160405190810160405280939291908181526020018383808284375f81840152601f19601f82011690508083019250505050505050815260200142815250908060018154018082558091505060019003905f5260205f2090600302015f909190919091505f820151815f015f6101000a81548173ffffffffffffffffffffffffffffffffffffffff021916908373ffffffffffffffffffffffffffffffffffffffff16021790555060208201518160010190816105a19190610d18565b506040820151816002015550503373ffffffffffffffffffffffffffffffffffffffff167fbff9c49b99e31a4e0bf388052eec92748cc1546aa61408a68e5a3f87080996538383426040516105f893929190610e21565b60405180910390a25050565b60405180606001604052805f73ffffffffffffffffffffffffffffffffffffffff168152602001606081526020015f81525090565b5f5ffd5b5f5ffd5b5f819050919050565b61065381610641565b811461065d575f5ffd5b50565b5f8135905061066e8161064a565b92915050565b5f6020828403121561068957610688610639565b5b5f61069684828501610660565b91505092915050565b5f73ffffffffffffffffffffffffffffffffffffffff82169050919050565b5f6106c88261069f565b9050919050565b6106d8816106be565b82525050565b5f81519050919050565b5f82825260208201905092915050565b8281835e5f83830152505050565b5f601f19601f8301169050919050565b5f610720826106de565b61072a81856106e8565b935061073a8185602086016106f8565b61074381610706565b840191505092915050565b61075781610641565b82525050565b5f6060820190506107705f8301866106cf565b81810360208301526107828185610716565b9050610791604083018461074e565b949350505050565b5f6020820190506107ac5f83018461074e565b92915050565b5f81519050919050565b5f82825260208201905092915050565b5f819050602082019050919050565b6107e4816106be565b82525050565b5f82825260208201905092915050565b5f610804826106de565b61080e81856107ea565b935061081e8185602086016106f8565b61082781610706565b840191505092915050565b61083b81610641565b82525050565b5f606083015f8301516108565f8601826107db565b506020830151848203602086015261086e82826107fa565b91505060408301516108836040860182610832565b508091505092915050565b5f6108998383610841565b905092915050565b5f602082019050919050565b5f6108b7826107b2565b6108c181856107bc565b9350836020820285016108d3856107cc565b805f5b8581101561090e57848403895281516108ef858261088e565b94506108fa836108a1565b925060208a019950506001810190506108d6565b50829750879550505050505092915050565b5f6020820190508181035f83015261093881846108ad565b905092915050565b5f606083015f8301516109555f8601826107db565b506020830151848203602086015261096d82826107fa565b91505060408301516109826040860182610832565b508091505092915050565b5f6020820190508181035f8301526109a58184610940565b905092915050565b5f5ffd5b5f5ffd5b5f5ffd5b5f5f83601f8401126109ce576109cd6109ad565b5b8235905067ffffffffffffffff8111156109eb576109ea6109b1565b5b602083019150836001820283011115610a0757610a066109b5565b5b9250929050565b5f5f60208385031215610a2457610a23610639565b5b5f83013567ffffffffffffffff811115610a4157610a4061063d565b5b610a4d858286016109b9565b92509250509250929050565b7f4e487b71000000000000000000000000000000000000000000000000000000005f52602260045260245ffd5b5f6002820490506001821680610a9d57607f821691505b602082108103610ab057610aaf610a59565b5b50919050565b7f4d65737361676520646f6573206e6f74206578697374000000000000000000005f82015250565b5f610aea6016836106e8565b9150610af582610ab6565b602082019050919050565b5f6020820190508181035f830152610b1781610ade565b9050919050565b7f4e487b71000000000000000000000000000000000000000000000000000000005f52603260045260245ffd5b7f4e487b71000000000000000000000000000000000000000000000000000000005f52604160045260245ffd5b5f819050815f5260205f209050919050565b5f6020601f8301049050919050565b5f82821b905092915050565b5f60088302610bd47fffffffffffffffffffffffffffffffffffffffffffffffffffffffffffffffff82610b99565b610bde8683610b99565b95508019841693508086168417925050509392505050565b5f819050919050565b5f610c19610c14610c0f84610641565b610bf6565b610641565b9050919050565b5f819050919050565b610c3283610bff565b610c46610c3e82610c20565b848454610ba5565b825550505050565b5f5f905090565b610c5d610c4e565b610c68818484610c29565b505050565b5b81811015610c8b57610c805f82610c55565b600181019050610c6e565b5050565b601f821115610cd057610ca181610b78565b610caa84610b8a565b81016020851015610cb9578190505b610ccd610cc585610b8a565b830182610c6d565b50505b505050565b5f82821c905092915050565b5f610cf05f1984600802610cd5565b1980831691505092915050565b5f610d088383610ce1565b9150826002028217905092915050565b610d21826106de565b67ffffffffffffffff811115610d3a57610d39610b4b565b5b610d448254610a86565b610d4f828285610c8f565b5f60209050601f831160018114610d80575f8415610d6e578287015190505b610d788582610cfd565b865550610ddf565b601f198416610d8e86610b78565b5f5b82811015610db557848901518255600182019150602085019450602081019050610d90565b86831015610dd25784890151610dce601f891682610ce1565b8355505b6001600288020188555050505b505050505050565b828183375f83830152505050565b5f610e0083856106e8565b9350610e0d838584610de7565b610e1683610706565b840190509392505050565b5f6040820190508181035f830152610e3a818587610df5565b9050610e49602083018461074e565b94935050505056fea2646970667358221220118358e3f386e3b98a3b2b1726285347375fc164d119db005a696504206ed91d64736f6c634300081e0033","linkReferences":{}},"methodIdentifiers":{"getMessage(uint256)":"86f79edb","getMessageCount()":"31933916","getMessages()":"5ff6cbf3","messages(uint256)":"0d80fefd","storeMessage(string)":"d4e36ba7"},"id":22}